:020000040800F2
:1000000070080020E101000899460008493B0008FB
:1000100095460008450F0008D15300080000000075
:10002000000000000000000000000000C5530008B0
:10003000550F000800000000A5460008C95300083D
:10004000FB010008FB010008FB010008FB010008A0
:10005000FB010008FB010008FB010008FB01000890
:10006000FB010008590F0008FB010008490F0008B8
:10007000FB010008FB010008FB010008FB01000870
:10008000FB010008FB010008FB010008FB01000860
:10009000FB010008FB010008FB010008FB01000850
:1000A000FB010008FB010008FB010008FB01000840
:1000B000FB010008FB010008FB010008FB01000830
:1000C000FB010008FB010008FB010008FB01000820
:1000D000FB010008FB010008FB010008FB01000810
:1000E000FB010008A9460008FB01000800F002F827
:1000F00000F066F814A696E8000CB244B344DA4562
:1001000001D100F05DF8BAE80F000FA696E83000C4
:10011000A5EB040504EB0607AAEB0704A7F101070A
:100120004FEA15154FEA3414A4F10104AC4201D38F
:1001300000F046F813F0010F18BFFB1A43F001035B
:1001400000F001F8DBE718471C7100003C7100006B
:10015000103A24BF78C878C1FAD8520724BF30C8F3
:1001600030C144BF04680C60704700007047000055
:100170000023002400250026103A28BF78C1FBD8B0
:10018000520728BF30C148BF0B607047662906F090
:10019000FC84642900F06080002070471FB500F0E7
:1001A000A9F904000020002106F018FA401C606044
:1001B0000020002106F028FAE0601FBD10B510BD38
:1001C00000F0EAFD1146FFF7E9FF05F003F900F042
:1001D00016FE03B4FFF7F2FF03BC00F019FE0000A7
:1001E0000948804709480047FEE7FEE7FEE7FEE7CB
:1001F000FEE7FEE7FEE7FEE7FEE7FEE70448054907
:10020000054A064B70470000CD530008ED0000087A
:10021000700200207008002070040020700400208C
:1002200010B500F067F9001D10BD00BFB1630000FC
:100230000FB41CB5074B06AA7B446946009005988D
:1002400000F0CDFB0020694600F0DCFB1CBC5DF833
:1002500014FB0000C90700002DE9F0410646002408
:1002600010687529314616A510D0AFF3008000281C
:1002700002DA404213A507E031688A0701D512A5CA
:1002800002E0490704D511A5012401E0AFF3008085
:1002900000210A2206F1240709E0B0FBF2FCB0FBC2
:1002A000F2F302FB1C00303078541846491C002839
:1002B000F3D123462A463046BDE8F04100F022B98A
:1002C000000000002D0000002B00000020000000B6
:1002D0002DE9F0474FF0000A89460446C0F820A0F7
:1002E0002046E1688847002876D0252806D0D4E942
:1002F00001219047206A401C2062F1E7E168204616
:1003000000258847C4F81CA006460027C4F818A09A
:100310002A2E09D0304606F059F938B304EB870885
:10032000303EC8F8186019E059F8041B204604EB69
:1003300087029161E1688847012F064618D1E0697C
:10034000002820DA25F020051DE0D8F8180000EB81
:10035000800006EB40003038C8F818002046E168FD
:100360008847064606F032F90028EED1012F0AD060
:100370002E2E08D12046E16888477F1C0646022FB2
:1003800045F02005C4DBA069002803DA404245F0AF
:100390000105A061E80701D025F01005B6B1A6F16E
:1003A0004100192802D8203645F400654A463146F6
:1003B000204625604D46FFF7E9FE58B1012806D0DA
:1003C000ED1D25F0070000F1080989E704E005F1BB
:1003D000040985E730468AE7206ABDE8F08770B5F2
:1003E000064600F08BF80468054630460A220021D4
:1003F00000F00DFB2C6070BD30B505460B462A465B
:1004000013F8014B12F8010B08B1A042F8D01CB14F
:10041000002802D06D1CF1E7284630BD10B5431C02
:1004200002E010F8011B71B18107FAD14FF00132DF
:1004300002C88C1A8C4314EAC211F9D0C01A0A06F9
:1004400003D0C01E10BDC01A10BD0A0401D0801E0A
:1004500010BD0902FCD0401E10BD4FF0000204295F
:10046000C0F0128010F0030C00F01B80CCF1040CE3
:10047000BCF1020F18BF00F8012BA8BF20F8022B17
:10048000A1EB0C0100F00DB85FEAC17C24BF00F8BD
:10049000012B00F8012B48BF00F8012B70474FF0EB
:1004A000000200B5134694469646203922BFA0E8C4
:1004B0000C50A0E80C50B1F12001BFF4F7AF0907D0
:1004C00028BFA0E80C5048BF0CC05DF804EB8900C1
:1004D00028BF40F8042B08BF704748BF20F8022B04
:1004E00011F0804F18BF00F8012B7047704770471C
:1004F00070470000004870473000002000487047F7
:10050000100000202DE9F0470D469946924604461A
:1005100000F124080168880604D5E06921F0100183
:10052000216000E00120A84201DD471B00E0002718
:10053000A1697A1902EB0900081AA0612078C006A7
:1005400002D42046AFF30080002608E0D4E9012160
:100550001AF806009047206A401C761C20624E451F
:10056000F4DB2078C0060AD52046AFF3008006E011
:10057000D4E9012130209047206A401C2062381EB7
:10058000A7F10107F4DC07E0D4E9012118F8050020
:100590009047206A401C2062281EA5F10105F3DC6B
:1005A0002046AFF300802078000602D50220BDE887
:1005B000F0870120FBE72DE9FF4F0C461E464FF068
:1005C000FF378BB0D2E90001DDF860800A908A46DF
:1005D000C1F30A5505B93D46002108464FF0000019
:1005E000BAF1000F00F4400005DA00EB80004FF490
:1005F000400101EA50004FEA9059B9F1010F00DDC6
:10060000B9460A9850EA4A000ED044F61050A5F2B6
:10061000FF3545432F14B8F1000F1ED07542291E37
:100620001EDDC9F100021CE0B8F1010F4FF000001F
:1006300001D0302103E0F24305E02154401CB042D8
:10064000FBDB30460022002121540B99C1F80880C1
:10065000C1E900200FB0BDE8F08FBD1B6D1CDEE7C7
:100660004A4600DA694206A800F0E4FA06AB93E8CD
:10067000070003AB83E8070050460A9905F0CAFB60
:100680008DE80700A0F500501F3800900398002D5A
:100690000ADD42F21F014A460844002303A90390E1
:1006A000684605F033FE09E0A0F500504A461F38C1
:1006B000002303A90390684605F03DFE8DE807007E
:1006C0000004000C03D04FF0FF30410800E010465A
:1006D000B8F1000F03D00022009215461EE0751EEF
:1006E00005D400F0D1F9303262556D1EF9D5B3460C
:1006F0000122084302D000227F1C04E02078302829
:1007000001D100227F1E002A099784D01DE0112DFF
:1007100007DA00F0B9F9303262556D1C50EA010277
:10072000F5D1084302D00098C8B10EE00021681E40
:1007300005E0235C625C63542254401E491C8142E4
:10074000F7DBAB46A81B401E0990002004F80B0005
:100750000B98099AC0F80880C0E9002B7AE71126A7
:100760004FF0000857E72DE9F04F88460446D21DA8
:1007700022F0070191B0D1E90001CDE90A0105F0AD
:1007800011FF02460B98C00F01D02D2007E0206812
:10079000810701D52B2002E0202101EAC000032AB5
:1007A000099001D0072A05DB03464146204600F0A8
:1007B000B1F90BE12078800601D5E06900E0062060
:1007C000B8F1650F814606D0B8F1660F18D0B8F1C0
:1007D000670F70D131E00020B9F1110F009001DBFB
:1007E000112301E009F101030AAA01A90CA8FFF7EE
:1007F000E2FEDDE90C70002609F10105834647E0C1
:1008000001204B4600904FF000470AAA01A90CA80E
:10081000FFF7D1FEDDE90DB00C995D46002610B959
:1008200009F101000D18B9EB050003D4C0F1FF3642
:1008300009F10105A5EB09002BE0B9F1010F01DA7F
:100840004FF001090020B9F1110F0090484601DD79
:10085000112300E003460AAA01A90CA8FFF7ABFE8A
:10086000DDE90C704D4600268346207800070AD447
:10087000AB4500DA5D4601A8012D04DD411911F8F0
:10088000011C302907D04F4502DA17F1040F04DAB2
:10089000012082460FE06D1EEEE7002F02DCED1B0B
:1008A0003E4403E0781CA84200DD7D1CB81B00F12B
:1008B000010A4FF000472078000703D4AA4501DB66
:1008C0004FF0FF3A0021B7F1004F0DF143088DF8CA
:1008D000431024D002202B23002F01DA7F422D2346
:1008E0000A21021EA0F1010000DC5FB197FBF1FCC0
:1008F00097FBF1F201FB1C7C17460CF1300C08F859
:1009000001CDEEE7A8F1010003702188090501D5AA
:10091000452100E06521A0F1010800F8011C0998BB
:100920000FA9A1EB0807FF1D00B10120411901EB40
:10093000EA70A1693844081A401EA0612078C006F8
:1009400002D42046AFF30080099828B1D4E90121F0
:100950009047206A401C20622078C00622D520469D
:10096000AFF300801EE0002E04DBB34502DD01A8DA
:10097000805D00E03020D4E901219047206A401CCE
:100980002062761CAAF101005FEA000A0AD1FFF793
:10099000B1FDC0680168405CD4E901219047206A3C
:1009A000401C2062281EA5F10105DCDC07E0D4E92B
:1009B000012118F8010B9047206A401C2062381E64
:1009C000A7F10107F3DC2046AFF30080032011B04C
:1009D00041E6000001694A1C02610878704700B5D1
:1009E0008FB0CDE901310021059105497944CDE968
:1009F000031011466846FFF76BFC0FB000BD000006
:100A0000E5FFFFFF0A6802F8010B0A6070472DE955
:100A1000F04791460F4680460446002614F8015BD5
:100A20002DB1FFF7FDFB0068405DC007F6D12B2D0F
:100A300002D02D2D18D0641E4A463946204600F0BB
:100A4000A9F827B13968A14201D1C7F800804FF059
:100A5000020471050BD54042002803DDFFF74EFD6F
:100A60000460A007BDE8F08746F48066E4E700284C
:100A7000F8DAFFF743FD04606FF00040F2E7000092
:100A8000004870471000002030B5B0F10A0271F143
:100A900000034FEA900E4EEA817EB0EB0E0061EB50
:100AA00091014FEA101E4EEA017E10EB0E0041EB61
:100AB00011114FEA102E4EEA016E10EB0E0041EBC1
:100AC00011214FEA104E4EEA014E10EB0E0041EBA1
:100AD0001141401841F100014FEAD00040EA417055
:100AE0004FEAD1014FEA810444EA907410EB80058B
:100AF00044EB01046D1944EB0404521BA3414FF075
:100B0000000348BF0A3200D530BD401C41F100014E
:100B100030BD00002DE9F0411F4604460326016860
:100B2000072A01F4006004DB08B116A505E016A54C
:100B300003E008B115A500E015A521F01000206024
:100B4000A069C01EA0610FB1401EA0612046AFF396
:100B500000804FB1D4E9012138469047206A401CFB
:100B60002062C01C206206E0206AFAE7D4E9012175
:100B700015F8010B9047761EF8D22046AFF300809F
:100B8000BDE8F0814E414E006E616E00494E460058
:100B9000696E66002DE9F05F824615468B46002798
:100BA0000AF10104B9460078302801D09DB113E064
:100BB00014F8010B0127782803D0582801D045B13B
:100BC0000AE00DB1102D07D1002714F8010B1025F4
:100BD00002E0082500E00A250026B0460EE005FBED
:100BE000080005FB06F101271FFA80F801EB10460B
:100BF000B6F5803F00D3B94614F8010B294600F042
:100C0000F0F80028EBDABBF1000F05D00FB1641E3D
:100C100000E05446CBF80040B9F1000F06D0FFF7D2
:100C20006DFC02210160C81EBDE8F09F48EA064045
:100C3000FAE700002DE9F047814616468AB03548AC
:100C400078440DC88DE80D0032487844801C03AC10
:100C50000DC884E80D0041F69B300844372190FB15
:100C6000F1F290FBF1F5A5F1800501FB12041B3CAC
:100C700002D56442012000E00020DFF898A0804601
:100C80000027FA44AAF1BE0A0EE0E0070AD0324675
:100C9000684607EB470101230AEB810105F04BFB96
:100CA0008DE8070064107F1C002CEED1194F7F44A3
:100CB000AE3F19E0E80715D007EB04100DF1180A54
:100CC00090E80E008AE80E00C068F04201D1981941
:100CD00008903246012306A903A805F02CFB03ABBC
:100CE00083E807006D10641C002DE3D14FF0010371
:100CF00032466946B8F1000F03A802D005F006FBA2
:100D000001E005F018FBC9E90001C9F808200AB0A4
:100D1000BDE8F087C85F00004FF0013C50F8042B9D
:100D200051F8043B9A4221D1A2EB0C03934313EAFE
:100D3000CC1317D150F8042B51F8043B9A4215D12B
:100D4000A2EB0C03934313EACC130BD150F8042B02
:100D500051F8043B9A4209D1A2EB0C03934313EAE6
:100D6000CC13DBD04FF00000704700BFD01A01BA9F
:100D7000B1FA81F101F0180122FA01F0CB40DBB2A7
:100D8000C0B2C01AC1F120012CFA01F3D11A91436B
:100D900011EAC311E6D170477546FFF771FEAE4602
:100DA00005006946534620F00700854618B020B577
:100DB000FFF724FABDE820404FF000064FF000078F
:100DC0004FF000084FF0000BAC46ACE8C009ACE8AF
:100DD000C009ACE8C009ACE8C00921F007018D46A4
:100DE00070473A2800D2303820F02002412A01D33F
:100DF000A2F13700884201D34FF0FF30704710B5A1
:100E00000446AFF300802046BDE81040FFF7E1B98B
:100E100001491820ABBEFEE7260002007047000023
:100E20000146406A826A12F0500F03D0006A026BDA
:100E3000084610470168826A42F40072826289683B
:100E400001F46021B1F5602F01D1017B11B100F0F7
:100E500039B900BF816A21F480718162816AC90455
:100E600048BF00F02FB9816A41F00101816200F0B2
:100E700029B90000406A816A41F040018162C16A7B
:100E800041F00401C16200F021B90000406A00F0A5
:100E90001BB90000B0B582B0044600200190216863
:100EA0008A68D2074BD1886840F00100886040F220
:100EB0000800C2F2000000684DF68361C4F21B31E5
:100EC000A0FB0101880C01900198A0B101980138A4
:100ED0000190019878B1019801380190019850B1C2
:100EE000019801380190019828B1019801380190CA
:100EF00001980028EAD100F011FD21688968C9072E
:100F00001CD1054603E000BF8068C00716D100F081
:100F100005FD411B20680329F6D38168C907F3D179
:100F2000A06A40F01000A062E06A40F00100E062B8
:100F3000002084F82400012002B0B0BD002002B0DF
:100F4000B0BD0000FEE7000040F27810C2F20000E1
:100F500000F052BA7047000080B540F27200C2F251
:100F60000000012101704FF4FA7000F0A7FB082087
:100F7000BDE8804000F0B8BBEFF3108072B600BF50
:100F8000FEE7000070B581B00022009290F82420A6
:100F9000012A03D10221084601B070BD4A6801232D
:100FA000062A02EB820E80F8243007D8D0F800C061
:100FB0006FF004030CF134060CE000BFD0F800C061
:100FC0000C2A87BF0CF12C066FF040030CF13006A1
:100FD0006FF022030EEB03021F23346803FA02F5BD
:100FE0000B6824EA050503FA02F22A433260092B52
:100FF00003EB43021AD9DCF80C601E3A0725896816
:101000009540AE43914023F001023143102ACCF8C1
:101010000C1015D142F20041C4F201018C4517D0E9
:10102000816A41F02001816201210AE0DCF8103080
:10103000072689689640B34391401943CCF81010B5
:101040000021002280F82420084601B070BD00BFB6
:1010500089680902F4D4DCF80810102B41F400016F
:10106000CCF80810ECD140F20801C2F20001096886
:101070004DF68362C4F21B32A1FB0212910C01EB0C
:1010800081014900009100990029D9D000990139C6
:10109000009100990029D3D000990139009100995D
:1010A0000029CDD000990139009100990029C7D0BD
:1010B000009901390091009900294FF00001E5D114
:1010C000BFE7000070470000704700007047000055
:1010D000002804BF01207047B0B50446806A28B1DB
:1010E00021688868C0070CD115E000BF0020E062CD
:1010F00084F82400204600F097F821688868C0072B
:1011000009D0886820F00100886000F007FC2168A1
:101110008A68D20726D1A06AC0063AD4A06A41F2F2
:10112000021290430230A062E069D4E9013240EA41
:10113000030C531EB3FA83F35D091346B2F5807FA7
:1011400018BF2B02207D257B01284CEA45002CD1BD
:1011500035B3A56A45F02005A562E56A45F00105AD
:10116000E56222E0054602E08868C007D3D000F0BF
:10117000D5FB401B21680328F6D38868C007F3D04D
:10118000A06A40F01000A062E06A40F00100E06256
:10119000A06AA06A40F01000A0620120B0BD00BFAC
:1011A000A56903EB4533A3F5C0534D68B2F5807FC5
:1011B00025F4694543EA05034B608B684FF2FD75E2
:1011C000CFF6E17503EA050343EA00038B6001D023
:1011D000012A07D122690023CFF6F07303EB0252F4
:1011E00001E000BF0022CB6A23F470031A43CA62F5
:1011F000896840F6FE62CFF61F721140814207D126
:101200000020E062A16A012262F30101A162B0BD87
:10121000A06A40F0100020F00200A062E06A40F0F6
:101220000100E0620120B0BD70B586B0044640F612
:101230000000C4F20100216800F5E052002691424E
:101240000596CDE90366029602D006B070BD00BFD8
:1012500041F21801C4F202010A6842F400720A6005
:101260000A6802F400720192019A0A6842F00402CC
:101270000A60096801F004010191019906210291B7
:101280000321039102A900F03BFA40F278150820EF
:10129000C2F20005C4F202004FF40072C5E9000674
:1012A00005F1100080214FF400634FF0200C80E81E
:1012B0000C102846C5E90261EE6100F06DF90028C6
:1012C00018BFFFF759FE25626C6206B070BD0000C2
:1012D000F0B581B0036842F60006C4F20106B342DD
:1012E00005D042F20046C4F20106B3420AD142F2EE
:1012F0000443C4F201031B6813F4702F02D00120D1
:1013000001B0F0BD90F82430012B03D1022001B0D0
:10131000F0BD00BF0D460121174680F82410064697
:10132000FFF7B8FD30B1002086F82400012001B09D
:10133000F0BD00BF42F204403168B36AC4F201005C
:10134000324640F60176B34300F57F7603F58073AD
:10135000B142936244D0906A20F480109062486851
:10136000400504D5906A012363F30D309062936ABF
:101370000020DB044FF0000344BFD36A23F00603D0
:10138000D36282F82400106A40F6216340F68D662D
:10139000C0F60003C0F6000640F67564C0F600040F
:1013A000C0E90A366FF0020304630B608B681446D1
:1013B00043F480738B604C312A463B4600F02EF993
:1013C0002068816801F460228168B2F5602F0CBF4B
:1013D00041F4A00141F480118160002001B0F0BD12
:1013E000036813F4702FB6D0936A43F480139362AA
:1013F00000684005B6D4BAE710B5D0E90FCE016851
:10140000DCF800300A6823FA0EF35C072AD512F0E4
:10141000040427D00A68920603D40A6822F0040262
:101420000A602F22C4F20202914240F20402C4F286
:1014300002025BDD3023C4F20203994272D04423DE
:10144000C4F20203994273D05823C4F202039942B2
:1014500040F07A804FF480231360C16A002940F085
:1014600098806FE09C0727D512F0020424D00A6808
:10147000920606D40A6822F00A020A60012280F865
:1014800021202F22C4F20202914240F20402C4F24F
:1014900002023BDD3023C4F20203994260D04423B0
:1014A000C4F2020399425FD05823C4F20203994266
:1014B00060D14FF4003365E01B0743D512F00802FA
:1014C00008BF10BD0A6822F00E020A60012101FA6D
:1014D0000EF2CCF80420816380F82110016B002209
:1014E000002980F8202054D12CE000BF0823C4F24A
:1014F0000203994222D01C23C4F20203994223D151
:1015000040231360C16A002943D11BE00823C4F2C1
:10151000020399422CD01C23C4F20203994229D120
:1015200020232FE04FF480631360C16A89BB09E078
:101530004FF480431360C16A59BB03E00423136076
:10154000C16A31BB10BD00BF02F168044FF0806377
:10155000A14208BF4FF480031360C16AC9B9F1E723
:101560004FF400730EE000BF4FF400530AE000BFD9
:10157000022307E002F168044FF00073A14208BFA4
:101580004FF400131360816A0022002980F82020A4
:10159000D8D0BDE810400847014600284FF00100B0
:1015A00008BF70472DE9F043D1F800C04FF6F8733B
:1015B000CBF6FD734CF6CD426344CCF6CC42A3FB94
:1015C00002236FF0030202EA93020023C4F2020333
:1015D00001F10C08C1E90F320222D1E9019E98E81D
:1015E000F00181F82120DCF8002043F6F0739A43E3
:1015F00042EA090242EA0E0222432A4332433A43B4
:1016000042EA0802CCF8002000228A6381F8210017
:1016100081F820200020BDE8F043704790F820C0FA
:10162000BCF1010F04BF02207047F0B54FF0010E6E
:1016300080F820E090F821C0BCF1010F26D14FF0D6
:10164000020C80F821C04FF0000CC0F838C0D0E97F
:1016500000C4C56AC66BDCF80070102C27F00107C7
:10166000CCF80070006C0EFA00F070600846CCF800
:10167000043004BF10460A46CCF80800CCF80C2011
:10168000DCF8000045B140F00E000DE0002180F8CC
:1016900020100220F0BD00BF20F00400CCF80000B4
:1016A000DCF8000040F00A00CCF80000DCF8000094
:1016B00040F00100CCF800000020F0BDB0B50446B9
:1016C00000F02CF9054640F20000C2F2000000785C
:1016D000611C18BF044400BF00F020F9401BA04269
:1016E000FAD3B0BD7047000040F21441C4F20101CA
:1016F0000A68024214BF08607047FFF7F3BF00009A
:101700002DE9F04F82B00E68002E00F0FD8041F20E
:101710000042C4F20102042340F2004E904208BF8E
:1017200003234FF6FF7CC4F2010E00930024012333
:10173000C1F2100C4FF0000A4FF000094BE000BF5F
:1017400041F20002C4F20102009F904208BF02274A
:1017500004F00C030F229A402BEA020207FA03F36B
:101760004FEA9A051A4346F825204E6840F20C4588
:10177000F202DEF8082054BF22EA080242EA080218
:10178000C4F20105CEF808202A68B30254BF22EA49
:10179000080242EA08022A60B303DEF8042054BFBC
:1017A00022EA080242EA0802F303CEF80420DEF837
:1017B00000204FF0010354BF22EA080242EA080267
:1017C000CEF800200E680AF1010A36FA0AF204F196
:1017D000040400F0998003FA0AFB16EA0B08F1D022
:1017E0004E68664512DC122E56D8DFE806F0350B3F
:1017F0004D495555555555555555555555555545BD
:10180000510000BFD1F80C9046E000BF4FF6FF72C8
:10181000C1F2210296420FDC0022C1F2110296426F
:101820001AD00022C1F21202964215D00022C1F253
:101830002102964210D02FE00022C1F222029642ED
:101840000AD00022C1F23102964205D00022C1F234
:101850003202964220D100BF8A684AB1012A14BFE1
:10186000C0F814B0C0F810B04FF0080914E000BF81
:101870004FF0040910E000BFCA6802F104090BE050
:101880004FF0000908E000BFCA6802F1080903E050
:10189000CA6802F10C0900BF02462646B8F5807FEF
:1018A00024BF0432203E17680F25B54027EA0505FE
:1018B00009FA06F635431560CA79D2067FF582AF7C
:1018C00041F21803C4F202031A68AEF57E7642F0C4
:1018D00001021A601A6802F001020192019A2AF0CC
:1018E000030256F802B040F60002C4F20102904230
:1018F00008D040F60042C4F2010290427FF420AFCB
:10190000012725E7002723E702B0BDE8F08F00009C
:10191000002A08BF090401617047000040F26820F6
:10192000C2F2000000687047002804BF0120704721
:10193000F0B581B0044690F83D0028B9002084F845
:101940003C00204600F090FB242084F83D002068F5
:10195000016821F001010160016841F4004101606A
:10196000016821F40041016000F074FE636848F2F0
:10197000A16CC0F2010C40F60011C0F23D016345BC
:101980003CBF48F28041C0F21E01884202D20120D1
:1019900001B0F0BD4DF68361C4F21B31A0FB011212
:1019A0002168970CD1F804E04FF496762EF03F05AD
:1019B00045EA92454D60774348F638160D6AC0F205
:1019C0004106A7FB067625F03F07634538BF960C16
:1019D000721C3A430A62CA6948F2A0664CF6FF7765
:1019E000C0F20106B34222EA07020BD801385B00BD
:1019F000B0FBF3F001306FF31F30042898BF0420D0
:101A00001BE000BFA768013857B119277B43B0FB23
:101A1000F3F001306FF31F3070B100F5804007E044
:101A200003EB4303B0FBF3F001306FF31F3018B149
:101A300000F5004001E000BF01201043C8610868C4
:101A4000D4E9072320F0C0001043184308608868D9
:101A500048F2FF3204F10C0790438CCF1843104337
:101A6000A6698860C86820F0FF0038433043C8602A
:101A7000086840F00100086000202021206484F8FC
:101A80003D10206384F83E0001B0F0BD2DE9F04721
:101A900084B0044600201F46164689460290FFF790
:101AA0003DFF94F83D10202924D10546206800BF51
:101AB000816989071AD5FFF731FF411B20681A2970
:101AC000F6D381698907F3D500202021206384F8AB
:101AD0003D1084F83E00216C41F02001216484F81F
:101AE0003C00022004B0BDE8F08700BF94F83C1031
:101AF000012903D1022004B0BDE8F087012184F858
:101B00003C100168C90703D1016841F0010101607F
:101B10000168DDF8308021F400610160222184F841
:101B20003D10102184F83E10002121646662678513
:101B3000618D0227C0F201072185A7F10211E16240
:101B4000E16A026811F5803F42F48062026018BFCA
:101B500001293DD1016841F48071016020464FF0B8
:101B6000011100224346009502F04EF850B1206862
:101B70000068C00544BF4FF400702064012004B029
:101B8000BDE8F0872069B0F5804F27D149F001000A
:101B9000C0B2216842460861204639462B4602F011
:101BA00019F90028EAD1208D022861D0012849D0F6
:101BB000002840F073800020039020684169039161
:101BC000816903910399016841F40071016071E03A
:101BD0000829BFD0216B1129BCD0BFE7062000EA3D
:101BE000D916206806F1F0010161B91D2046424670
:101BF0002B4602F0EFF80028C0D120685FFA89F187
:101C000001612046394642462B4602F0E3F800289F
:101C1000B4D100200390206800224169434603911B
:101C2000816903910399016841F480710160204644
:101C30004FF00111009501F0E7FF002897D146F021
:101C4000F100A6E72068016821F480610160EFF3EC
:101C5000108072B600200390206841690391816969
:101C600003910399016841F40071016062B621E0BB
:101C70002068016841F400610160EFF3108072B6E2
:101C800000200390206841690391816903910399C1
:101C9000016821F48061016062B60BE02068016890
:101CA00041F48061016000210391416903918069E1
:101CB00003900398208D002800F0CA8040F20809A4
:101CC0004BF2895A0237C2F20009C1F2F84A2326C0
:101CD0000EE000BF10690870606A218D01306062FB
:101CE000481E2085618D01396185010400F0B080B6
:101CF00080B203280CD802282CD001284AD12046D3
:101D000041462A4602F0D2F8002800F09C8035E7D0
:101D1000204641462A4602F0C9F800287FF42EAF3B
:101D20002068616A00690870606A2268411C208D21
:101D3000616201382085638D013B638553695B07D0
:101D4000D3D580B20328C5D1106820F4806010601C
:101D5000C0E700BF2046394600224346009501F007
:101D600053FF00287FF40AAFEFF3108072B62068AB
:101D7000616A026842F40072026000690870606A79
:101D8000218D01306062481E2085608D013860859C
:101D900062B658E02046394600224346009501F0DD
:101DA00033FF00287FF4EAAE2068016821F48061E7
:101DB0000160EFF3108072B62068616A00690870F4
:101DC000606A218D0130013960622185618D0139A0
:101DD0006185D9F80010C908A1FB0A12110A7143E4
:101DE0000291029901390291029900293CD021689F
:101DF0004A69520717D4029A013A0292029A9AB398
:101E00004A6952070FD4029A013A0292029A5AB3CF
:101E10004A69520707D4029A013A0292029A1AB307
:101E20004A695207DDD50A6842F400720A600969FE
:101E30000170606A218D01306062481E2085608DCE
:101E40000138608562B62068616A006943E700BFB7
:101E5000202084F83D00002084F83E0084F83C00F7
:101E600004B0BDE8F08700BF00202021206384F883
:101E70003D1084F83E00216C41F02001216462B6DF
:101E800084F83C00012004B0BDE8F0872DE9F04360
:101E900083B01E46174689460446FFF73FFD94F877
:101EA0003D10202924D10546206800BF816989079B
:101EB0001AD5FFF733FD411B20681A29F6D3816933
:101EC0008907F3D500202021206384F83D1084F891
:101ED0003E00216C41F02001216484F83C00022086
:101EE00003B0BDE8F08300BF94F83C10012903D192
:101EF000022003B0BDE8F083012184F83C100168A2
:101F0000C90703D1016841F001010160016840F295
:101F1000020821F400610160212184F83D101021A4
:101F200084F83E100021216467626685618DC0F2ED
:101F300001082185A8F10211E162E16A0A9E11F50A
:101F4000803F18BF01291DD1016841F480710160F3
:101F500020464FF0011100223346009501F054FE57
:101F600050B120680068C00544BF4FF40070206481
:101F7000012003B0BDE8F0832069B0F5804F07D1A0
:101F8000FE2015E00829DFD0216B1229DCD0DFE725
:101F9000062000EAD9102168F030086108F1060136
:101FA000204632462B4601F015FF0028E0D1FF20E5
:101FB000216800EA090008612046414632462B4666
:101FC00001F008FF0028D3D1002002902068416969
:101FD000029180690290029806E000BF20463146D7
:101FE0002A4601F0B3FD18BB208D68B32046314668
:101FF0002A4601F0A3FFD8B9606A2168024612F8A8
:10200000013B0B616262628D013A6285228D531E33
:1020100023854F697F07E1D51B04DFD04378023069
:102020000B616062608D01386085901E2085D5E768
:10203000206C04289CD12068016841F40071016083
:10204000012003B0BDE8F0832068016841F400710D
:102050000160202084F83D00002084F83E0084F8D0
:102060003C0003B0BDE8F08310B586B0016845F2CE
:102070000040C4F2000081424FF00001CDE904119C
:10208000CDE9021102D006B010BD00BF41F2180424
:10209000C4F20204216800F5384041F008012160D3
:1020A000216801F0080101910199C02102911221DA
:1020B00003910321059102A9FFF722FB606840F418
:1020C00000106060606800F400100190019806B094
:1020D00010BD000040F2000040F26821C2F2000092
:1020E000C2F2000100780A681044086070470000DE
:1020F00080B542F20000C4F20200016841F0100114
:102100000160032000F08CF8002000F005F800F0DA
:1021100027F8002080BD000070B540F20006C2F232
:10212000000640F208013278C2F200014FF47A73DF
:102130000968B3FBF2F20446B1FBF2F1084601F084
:10214000E3FC0F2C4FF0010508D838B94FF0FF30F1
:1021500021460022002500F037F87460284670BD43
:1021600082B041F21800C4F202000168022241F07C
:1021700001010160016801F00101019101994168CB
:1021800041F080514160406800F08050009000981C
:102190000420C4F20100016862F31A61016002B018
:1021A00070470000002848BF704700F01F0101225F
:1021B00002FA01F11C2202EAD0004EF20012CEF225
:1021C000000281507047000010B54EF60C5CCEF254
:1021D000000CDCF80030C3F3022E8EF00704042C50
:1021E00028BF0424BEF103034FF0FF3E0EFA04F4AF
:1021F00038BF0023A14399400EFA03F39A431143D9
:1022000000F00F0200F160430901043A03F5644352
:102210006244002848BF02F10C03197010BD000091
:102220004EF60C51CEF200010A684FF6FF031A4039
:1022300060F30A2242F0806040F0FD700860704751
:102240002020C4F20E2001210160704710B547F232
:102250000002C4F2000213684EF6105423F0020389
:1022600013601368CEF2000423F0010318431060DA
:102270002068012940F00400206005D130BF2068AB
:1022800020F00400206010BD40BF02F007FA02F009
:1022900005FA206820F00400206010BD012821D03C
:1022A00002280DD0102808D141F20401C4F2020125
:1022B0000A6851F8040CC00134D40020704700BFF4
:1022C00080B500F0DBF941F20401C4F202010968B3
:1022D0000222C1F3813102EB4101B0FBF1F0BDE814
:1022E0008040704741F20400C4F20200C16940F22C
:1022F00002320A40B2F5817F04BF4FF400407047BC
:1023000001F44071B1F5407F18D0B1F5007F1CBFDA
:1023100000207047006A49F64041800701EAE070FA
:10232000704700BFC2F3834015A3185CD2030DD4DD
:1023300040F60012C0F23D02504313E050F8040C86
:102340004FF22441800301EAE07070470A6810A34D
:10235000C2F340429A5C41F20023C0F27A03B3FB1D
:10236000F2F250430968490248BF70474AF6AB2170
:102370004000CAF6AA21A0FB01014808704700BF2F
:1023800002030405060708090A0B0C0D0E0F1010B6
:10239000010200002DE9F04182B00446007841F2CC
:1023A0001C06C007C4F202064AD030685FEAC008C3
:1023B00008D4306840F080503060306800F08050C1
:1023C0000190019847F20007C4F200073868C00581
:1023D00012D4386840F480703860FFF79FFA0546E1
:1023E0003868C00508D4FFF799FA401B6428F7D96C
:1023F000032002B0BDE8F081706810F4407012D084
:10240000616801F4407188420DD0706840F240422A
:10241000C4F24222012320F4407113600023C0075C
:102420001360716026D17068616820F440700843C1
:10243000B8F1000F706003D4306820F08050306035
:102440002068810707D556F8181CA26821F440417E
:10245000114346F8181CC00607D556F8180CE16859
:1024600020F48000084346F8180C002002B0BDE8B4
:10247000F08100BFFFF752FA054641F2883700BFEE
:1024800070688007CFD4FFF749FA401BB8424FF07D
:102490000300F5D9EAE70000002804BF01207047D7
:1024A0002DE9F04381B042F20008C4F2020804466C
:1024B000D8F800000D4600F0070081420CD9D8F88A
:1024C000000020F007002843C8F80000D8F80000FA
:1024D00000F00700A8426CD1206841F2040981078E
:1024E000C4F2020917D5410705D5D9F8001041F407
:1024F000E061C9F80010010705D5D9F8001041F4D2
:102500006051C9F80010D9F80010A26821F0F0015C
:102510001143C9F80010C00742D1D8F8000000F0FC
:10252000070085420CD2D8F8000020F007002843AD
:10253000C8F80000D8F8000000F00700A84238D121
:102540002068410707D5D9F80010E26821F4E0615E
:102550001143C9F80010000708D5D9F80000216917
:1025600020F4605040EAC100C9F80000D9F800200A
:1025700002F00C00082841F20020C0F27A004DD190
:1025800047F22E23C2F38341C0F60003595CD20305
:1025900038D440F60010C0F23D0048433EE000BF92
:1025A000606859F8041C022808D0012826D1890344
:1025B00006D4012001B0BDE8F08300BF8901F8D541
:1025C000D9F8001021F003010843C9F80000FFF713
:1025D000A5F9064641F28837D9F80000616800F095
:1025E0000C00B0EB810F98D0FFF798F9801BB84230
:1025F000F2D9032001B0BDE8F08300BF8907D8D528
:10260000DEE700BFD9F8002047F22C23C2F3404296
:10261000C0F600039A5C4843B0FBF2F0D9F8001012
:1026200046F62442C1F30311C0F60002515C40F2A9
:10263000080220FA01F140F20400C2F20000006832
:10264000C2F200021160FFF767FD002001B0BDE893
:10265000F083000040F2080041F20401C2F20000E1
:10266000C4F202010068096846F63442C1F302214F
:10267000C0F60002515CC8407047000040F20800FC
:1026800041F20401C2F20000C4F2020100680968CC
:1026900046F63442C1F3C221C0F60002515CC84084
:1026A00070470000002804BF012070472DE9F04169
:1026B00082B00446007841F20006C007C4F2020668
:1026C0000CD0706800F00C00042840F08180306865
:1026D000800303D56068002800F0468120788007D9
:1026E0001BD5706810F00C0F09D0706800F00C005A
:1026F000082840F087807068C00300F1838030684C
:10270000800703D52069012840F02E813068616977
:1027100020F0F80040EAC10030602078000713D4B0
:10272000207840072CD4E569002D00F018817068EE
:1027300000F00C00082840F0A780012D40F0048133
:10274000012002B0BDE8F081A069002800F084807B
:102750000020C4F242200121C0F88014FFF7DEF807
:10276000054600BF706A800700F1B280FFF7D6F817
:10277000401B0228F6D9032002B0BDE8F08100BF5B
:10278000F0695FEAC00808D4F06940F08050F06159
:10279000F06900F080500090009847F20007C4F202
:1027A00000073868C00549D4386840F48070386044
:1027B000FFF7B4F8054600BF3868C0053ED4FFF700
:1027C000ADF8401B6428F7D9032002B0BDE8F081C2
:1027D000706800F00C00082803D17068C0033FF552
:1027E00076AF61683068002900F00C81B1F5A02F48
:1027F00000F00081B1F5803F40F01A8140F4803054
:102800001CE100BF2069002840F20000C4F2422011
:1028100000F0888001210160FFF780F8054600BFC5
:10282000306880073FF572AFFFF778F8401B022849
:10283000F6D9032002B0BDE8F08100BFE168306A3C
:10284000002900F09D80052900F09280012940F0C8
:10285000AF8040F00100B1E00020C4F2422000212E
:10286000C0F88014FFF75AF8054600BF706A800769
:102870007FF556AFFFF752F8401B0228F6D9032028
:1028800002B0BDE8F08100BF0027C4F2422700205B
:102890003866FFF743F8022D05460DD130688001F8
:1028A00040F1DE80FFF73AF8401B02284FF00300AA
:1028B000F4D902B0BDE8F081306880014FD5FFF750
:1028C0002DF8401B02284FF00300F5D9F1E700BFB7
:1028D00040F20800C2F20000006844F6D351C1F291
:1028E0006201A0FB0101480A019000BF00BF0198EE
:1028F000411E002801913FF413AF00BF0198411E13
:10290000002801913FF40CAF00BF0198411E002840
:1029100001913FF405AF00BF0198411E00280191CD
:10292000E4D1FDE600210160FEF7F8FF054600BF97
:10293000306880077FF5F1AEFEF7F0FF401B0228FC
:102940004FF00300F4D9B4E77068216A00F48032D4
:102950008A4209D1616A00F47010884204D10020D3
:1029600002B0BDE8F08100BF012002B0BDE8F081F7
:1029700040F004003062306A40F001001EE000BF09
:1029800020F001003062306A20F004003062FEF76F
:10299000C5FF054641F28837306A800720D5FEF72B
:1029A000BDFF401BB8424FF00300F5D981E700BFDF
:1029B00020F001003062306A20F004003062FEF73F
:1029C000ADFF054641F28837306A800708D4FEF72C
:1029D000A5FF401BB842F7D9032002B0BDE8F08143
:1029E000B8F1000F3FF59FAEF06920F08050F06124
:1029F00099E600BF40F480203060306840F48030B9
:102A00001CE000BF20F480303060306820F480206B
:102A10003060FEF783FF0546306880037FF55EAEC9
:102A2000FEF77CFF401B64284FF00300F4D940E719
:102A300020F480303060306820F480203060FEF771
:102A40006DFF0546306880033FF548AEFEF766FF30
:102A5000401B6428F6D9032002B0BDE8F08100BF16
:102A6000206AB0F5803F05D17168A26821F4003179
:102A7000114371607168626A21F474111143084353
:102A8000706001203866FEF749FF04463068800117
:102A90003FF565AFFEF742FF001B02284FF0030031
:102AA000F4D906E77047000010B501680A6892077C
:102AB00044BF49685FEA81710AD440F21441C4F20C
:102AC00001014FF400320A600121417410BD00BFC2
:102AD0000446FFF7E7FF216820464A6822F0020219
:102AE0004A60EAE72DE9F047064600284FF001006A
:102AF00000F0AE800C46002908BFBDE8F0873068C2
:102B00004168490700F1E08091468269C1698369A3
:102B100092B29BB29A4203D189B241EA024103E0E8
:102B2000C16989B241EA03414BF2C532C9F2A2122E
:102B3000A1FB0223DA0A4FF4616302FB131348F688
:102B400089059FB26F437D0D65702D01A5EB575729
:102B5000A3EB870345F28017C0F20107B942A370C7
:102B600036D344F20753CCF22E23A1FB03374AF6A7
:102B7000AB23C0F6AA23A2FB033505EB4503A2EB6A
:102B8000C3022270026A406A4FEA174880B240EAE4
:102B90000240451A98BF4FF0FF35421C4AF680624A
:102BA000CFF6FE7208FB021A08BF0546FEF7B6FE16
:102BB000074600BF3068416889064BD4FEF7AEFE79
:102BC000C01BB0F57A7FF5D90120BDE8F08700BFC2
:102BD0002270B9F1000F3AD021784FF0CD0CA1F15D
:102BE0000A07FEB206FB0CF6F60A627806EB8605CB
:102BF000CBB2A7EB450707EB0617092BA2F10A0397
:102C0000A07888BF07F11001DFB207FB0CF7FF0ABD
:102C100007EB87062170D1B2A3EB460303EB071342
:102C2000092988BF03F110026270A0F10A02D3B231
:102C300003FB0CF3DB0A03EB8307C1B2A2EB4702F1
:102C400002EB0312092988BF02F11000A0700020D6
:102C5000BDE8F087416841F0100141604FEA1A4138
:102C600081611FFA8AF1C161416821F01001416060
:102C7000FEF754FE074600BF30684068800609D45E
:102C8000FEF74CFEC01BB0F57A7FF5D90120BDE8F8
:102C9000F08700BF681C11D05544FEF73FFE074681
:102CA00030684168890613D4FEF738FEC01BB0F5C2
:102CB0007A7F4FF00100F3D9CAE700BF30464FF0EA
:102CC000FF3101F06BFE08B30120BDE8F08700BFC3
:102CD000416841F010014160290C0162A9B24162D2
:102CE000416821F010014160FEF718FE074600BF61
:102CF00030684068800609D4FEF710FEC01BB0F5AE
:102D00007A7F4FF00100F3D9A2E700BF3046414679
:102D100001F0D8FCB9F1000F7FF45EAF97E7000037
:102D2000002804BF0120704770B50446407C20B9DC
:102D300000202074204600F06BF8022060742068A8
:102D4000416821F008014160FEF7E8FD064600BF3A
:102D500020684568FEF7E2FD290705460ED4A81B4A
:102D6000B0F57A7FF4D901200421617470BD00BFF1
:102D7000FEF7D4FD401BB0F57A7FF4D8216848688F
:102D80008006F5D5486846F62C4240F010004860B1
:102D90004868C4F2000220F007004860A06818B13B
:102DA000536823F001035360136823F460731843DE
:102DB00010606068421C05D10120FFF76FFA18B35C
:102DC00021680138C0F3034280B28A60C860486855
:102DD00020F010004860FEF7A1FD0546206840681D
:102DE000800607D4FEF79AFD401BB0F57A7FF5D92F
:102DF000B9E700BF40F201110020A4F80D10012135
:102E0000E073617470BD00BF04210120617470BD66
:102E1000006842F60001C4F20001884218BF704702
:102E200080B582B0FFF70CFA41F21C00C4F2020038
:102E30000168002241F0006101600068012100F09A
:102E400000600190019840F23C40C4F242200160D1
:102E500029200221FFF7B8F9292002B0BDE88040FF
:102E6000FFF7A0B970B582B0044600208DF80600C7
:102E7000ADF80400002C4FF0010018BF002901D16B
:102E800002B070BD207C01284FF00200F8D0012371
:102E9000237401AB607420460D4619461646002285
:102EA000FFF720FE00284FF00100E9D132469DF8DF
:102EB00004009DF805604FF4616329469DF80650B3
:102EC0005843C6EB061600EB86000E782844CAB1BC
:102ED0003209A2EB820206EB4202D2B25A434B788D
:102EE0008E781909A1EB810103EB4101C9B2C1EB55
:102EF000011102EB81013209A2EB820206EB4202D0
:102F000007E000BF73434E788A78C6EB061103EBE7
:102F10008101D2B28E1806F58031864238BF01F5A4
:102F2000A346FEF7FBFC054620684168890607D4E6
:102F3000FEF7F4FC401BB0F57A7FF5D91AE000BF2C
:102F4000416841F010014160310C0162B1B241624F
:102F5000416821F010014160FEF7E0FC054600BF2A
:102F600020684168890609D4FEF7D8FC401BB0F5FB
:102F70007A7FF5D90120042116E000BF416821F0D5
:102F800002014160016841F00201016040F200402D
:102F9000C4F20100016841F400310160816841F42C
:102FA000003181600020012161740021217402B090
:102FB00070BD0000F0B581B0044600284FF001005C
:102FC00018BF002902D101B0F0BD00BF207C01284C
:102FD0004FF00200F7D0012323746074CB788AB1DC
:102FE0001809A0EB800003EB400348788A780709B2
:102FF000A7EB870700EB47071009A0EB800002EB67
:10300000400001E04F788878FEB2022EDAB2E37316
:103010006773A0730AD817237B43DBB239277B433E
:103020005F0A02F2CF7340F2D47609E048F63E67B9
:10303000C0F20207774302F5FA633F0C40F2D27602
:10304000C0B21044304440F21F5500EB93005D4382
:103050003844A0EB554000EBD54082B242F2934396
:103060005A43A0EB12439BB25B0803EB1242920857
:10307000A2EBC2020244206822730A708269C1690D
:10308000836992B29BB29A4204D188B240EA02406C
:1030900004E000BFC06980B240EA034045F6907189
:1030A000C0F2010188424FF000061BD344F20751E1
:1030B000CCF22E21A0FB0112110C40F2A3225143AD
:1030C000A0EBC117FEF72AFC054600BF2068416847
:1030D00089060DD4FEF722FC401BB0F57A7FF5D9A6
:1030E0003AE000BF012100206174267401B0F0BDF8
:1030F000416841F010014160390C8161B9B2C16190
:10310000416821F010014160FEF708FC054600BF50
:1031100020684168890607D4FEF700FC401BB0F523
:103120007A7FF5D918E000BF016A406A80B240EAB0
:103130000140B84234D200F5803000F5A347FEF7D5
:10314000EDFB05462068416889060BD4FEF7E6FBD7
:10315000401BB0F57A7FF5D90120042161742674F3
:1031600001B0F0BD416841F010014160390C0162CD
:10317000B9B24162416821F010014160FEF7CEFB17
:1031800005462068406880060AD4FEF7C7FB411B4D
:103190000120B1F57A7F4FF00401F2D9A4E700BF16
:1031A000002001216174267401B0F0BD70B50446A1
:1031B00000284FF0010018BF002901D170BD00BFE9
:1031C000207C01284FF0020008BF70BD012323744A
:1031D00060740878D2B10209A2EB820200EB4200CF
:1031E000C0B24FF4616250434A7889781309A3EB67
:1031F000830302EB4302D2B2C2EB021200EB820065
:103200000A09A2EB820201EB420108E04FF461627D
:1032100050434A788978C2EB021200EB8200C9B2AF
:103220004618FEF77BFB054620684168890607D4EF
:10323000FEF774FB401BB0F57A7FF5D954E000BF70
:10324000416841F010014160310C8161B1B2C1614E
:10325000416821F010014160FEF760FB054600BFA8
:1032600020684168890607D4FEF758FB401BB0F57B
:103270007A7FF5D938E000BF416821F0050141604F
:10328000016A406A80B240EA0140B04232D200F5A1
:10329000803000F5A346FEF741FB054620684168F3
:1032A000890607D4FEF73AFB401BB0F57A7FF5D9C3
:1032B0001AE000BF416841F010014160310C016229
:1032C000B1B24162416821F010014160FEF726FB76
:1032D000054600BF2068406880060BD4FEF71EFB41
:1032E000401BB0F57A7FF5D90120042161740021DB
:1032F000217470BD0020012161740021217470BD12
:103300004EF21000CEF20000016841F002010160AF
:103310007047000070B528B1416A29B100210161F0
:10332000142106E0012070BD4168B1F5827F02D012
:103330001C21002242500026866290F8511029B9C3
:1033400080F85060054600F039F82846022180F8E0
:10335000511090E82E0002F482720C6803F40443CA
:1033600024F040040C601A4405F4006305691A4413
:1033700005F0020345691A4405F001038569C46933
:103380001A4405F400731A4404F03803046A1A441A
:1033900004F08003846A1A4304F400531A430A6059
:1033A000042202EA15424A60CA6922F40062CA6134
:1033B0000121466580F85110304670BD70B586B069
:1033C00040F60004C4F20104006804F52051002610
:1033D00088420596CDE90366029601D006B070BD1D
:1033E00041F21800C4F20200016802AD41F48051BC
:1033F0000160016801F4805101910199016841F077
:10340000040101600068294600F004000190019861
:10341000A020029002200390032005902046FEF792
:103420006FF94020CDE90206204629460496FEF7B2
:1034300067F906B070BD00002DE9F04182B0044686
:1034400090F85100012819D160681D4617460E46B4
:10345000B0F5827F01D1A068A0B1FEF75FFA804687
:10346000002E4FF0010018BF002F03D102B0BDE8BD
:10347000F08100BF94F85000012811D1022002B061
:10348000BDE8F081042084F85100204631463246E0
:103490003B46009500F0CEF902B0BDE8F08100BFD8
:1034A000012084F850000420002184F85100616557
:1034B000A663A787E7872163A186E186A2682068C3
:1034C000B2F5004F2164616438D00168490640D5E7
:1034D000E168E08F002944D000287BD0681C0CD123
:1034E0001BE000BFC068A16B21F8020BA163E08F55
:1034F0000138E087E08F00286CD020688168C90718
:10350000F0D1FEF70BFAA0EB0800A842F2D342E09C
:10351000FEF704FAE08F00285CD020688168C907B4
:10352000F6D0C068A16B21F8020BA163E08F0138CF
:10353000E087E08F0028F0D14CE000BF016821F067
:1035400040010160016821F4804101600168490681
:10355000BED4016841F040010160E168E08F0029BC
:10356000BAD1B8B3681C0CD124E000BF007BA16BBA
:103570000870A06B0130A063E08F0138E087E08F16
:1035800040B320688168C907F0D1FEF7C7F9A0EB06
:103590000800A842F3D3012084F85100002084F8E9
:1035A0005000032002B0BDE8F08100BFFEF7B6F97D
:1035B000E08F78B120688168C907F7D0007BA16BE4
:1035C0000870A06B0130A063E08F0138E087E08FC6
:1035D0000028EFD16068B0F5827F11D1A068B0F506
:1035E000004F02D0B0F5806F0AD12168B0F5806F2E
:1035F0000A6822F040020A6002D12046012101E05F
:103600002046802100222B46CDF8008001F0F6F9FB
:1036100028B1606D40F020006065202060650120C9
:1036200084F85100002084F85000606D002818BF15
:10363000012002B0BDE8F0812DE9F04182B01D46C5
:1036400016460F460446FEF769F994F85110012911
:103650000ED18046002F4FF0010018BF002E03D17D
:1036600002B0BDE8F08100BF94F85000012803D1FA
:10367000022002B0BDE8F081012084F85000032050
:10368000002184F8510061652763A686E686A16360
:10369000A187E187A0682164B0F5004F20686164CC
:1036A00007D1016821F040010160016841F48041C7
:1036B00001600168490603D4016841F040010160DE
:1036C0006168731EE268B1FA81F1B3FA83F34909C4
:1036D0005B09B2F5006F41EA030139D131B137F826
:1036E000021BC1602763E08E0138E086E08E00286F
:1036F00070D0681C0BD11AE0216B31F8022BC2602C
:103700002163E08E0138E086E08E002862D02068D8
:1037100081688907F0D4FEF701F9A0EB0800A84200
:10372000F2D338E0FEF7FAF8E08E002852D0206895
:1037300081688907F6D5216B31F8022BC2602163BD
:10374000E08E0138E086E08E0028F0D142E000BF34
:1037500039B139780173206B01302063E08E013874
:10376000E086E08EB0B3681C0BD123E0216B0978B2
:103770000173206B01302063E08E0138E086E08E1B
:1037800040B3206881688907F0D4FEF7C7F8A0EB42
:103790000800A842F3D3012084F85100002084F8E7
:1037A0005000032002B0BDE8F08100BFFEF7B6F87C
:1037B000E08E78B1206881688907F7D5216B097898
:1037C0000173206B01302063E08E0138E086E08ECB
:1037D0000028EFD12046022101222B46CDF800809F
:1037E00001F00CF940B92046802100222B46CDF88B
:1037F000008001F003F928B1606D40F020006065A1
:1038000020206065A06838B9002001902068C16858
:103810000191806801900198012084F851000020F6
:1038200084F85000606D002818BF012002B0BDE888
:10383000F08100002DE9F04383B01E4615460F4687
:103840000446FEF76BF894F851108146012909D11E
:10385000002F4FF0010018BF002D0FD103B0BDE8BD
:10386000F08300BF6068B0F5827F0DD104294FF06E
:103870000200F3D1A1680029EAD0EFE7002EEDD0D5
:1038800094F85000012803D1022003B0BDE8F08372
:10389000012084F8500094F85100002104281CBF36
:1038A000052084F851006165A563E687A687276334
:1038B000E6862068A686216461640168490603D40F
:1038C000016841F0400101606168731EE268B1FA6D
:1038D00081F1B3FA83F3DDF8288049095B09B2F579
:1038E000006F41EA030165D131B137F8021BC160B5
:1038F0002763E08E0138E086012518F1010032D1FE
:1039000002E000BFFEF70AF8E08E18B9E08F002849
:1039100000F0B8802068816889070CD5E18E51B12C
:10392000012D08D1216B002531F8022BC2602163E3
:10393000E18E0139E1868168C907E3D0E18F002972
:10394000E0D0C068A16B012521F8020BA163E08FD4
:103950000138E087D6E700BFFDF7E0FFA0EB0900E4
:10396000404580F0AF80E08E18B9E08F002800F06D
:1039700089802068816889070CD5E18E51B1012DBD
:1039800008D1216B002531F8022BC2602163E18E42
:103990000139E1868168C907DED0E18F0029DBD0DB
:1039A000C068A16B012521F8020BA163E08F0138EB
:1039B000E087D1E739B139780173206B013020639A
:1039C000E08E0138E086012518F1010032D101E0D6
:1039D000FDF7A4FFE08E10B9E08F002852D02068D8
:1039E000816889070ED5E18E61B1012D0AD1216B65
:1039F000002509780173216B206801312163E18E74
:103A00000139E1868168C907E2D0E18F0029DFD062
:103A1000C068A16B01250870A06B0130A063E08F26
:103A20000138E087D4E700BFFDF778FFA0EB09007D
:103A3000404547D2E08E08B9E08F18B3206881680E
:103A400089070ED5E18E61B1012D0AD1216B0025C8
:103A500009780173216B206801312163E18E0139FE
:103A6000E1868168C907DFD0E18F0029DCD0C0681A
:103A7000A16B01250870A06B0130A063E08F0138B5
:103A8000E087D1E72046022101224346CDF800908D
:103A900000F0B4FF40B92046802100224346CDF813
:103AA000009000F0ABFFB8B1606D40F020006065A1
:103AB00020206065002084F85000012003B0BDE89C
:103AC000F08300BF012084F85100002084F85000EA
:103AD000032003B0BDE8F083A06838B9002002904D
:103AE0002068C1680291806802900298012084F8E1
:103AF0005100002084F85000606D002818BF01209C
:103B000003B0BDE8F0830000411E0020B0EB116F50
:103B10001CBF012070474EF21002CEF2000251602D
:103B20004EF62351CEF20001F0230B700721906076
:103B3000116070474EF21000CEF20000016821F0D3
:103B40000201016070470000FEE7000070B50368E5
:103B5000044653F8140F400711D40E46481C29D0D0
:103B600086BB00BF1868400527D4FDF7D7FE236841
:103B700053F8140F400737D518684007F2D50020D6
:103B800070BD00BF18684007F9D41868400514D408
:103B900018684007F3D4186840050ED41868400729
:103BA000EDD41868400508D4186840074FF00000AD
:103BB00048BF70BD18684005E4D56FF48060186098
:103BC000042012E0154603E053F8140F4007D6D442
:103BD00018684005F1D4FDF7A1FE401B2368B042F0
:103BE000F2D958694007EFD4202000212022216318
:103BF00084F83D2084F83E10226C1043206401209C
:103C000084F83C1070BD00002DE9F04105460068C5
:103C10001E46144601F47F0201338FB242D0DDF814
:103C20001880B2F5803F40F0878040693840C01B63
:103C3000B0FA80F04009844240F0C8804EB924E0D8
:103C400040693840C01BB0FA80F04009844240F01F
:103C5000BD80FDF763FEA0EB08012868B142EFD9F3
:103C600041693940C91BB1FA81F149098C42E7D158
:103C70009BE000BF40693840C01BB0FA80F04009AB
:103C800084424FF0000040F0A280FDF747FE286814
:103C900041693940C91BB1FA81F149098C42E9D126
:103CA00083E000BFB2F5803F24D100BF41693940B5
:103CB000C91BB1FA81F149098C4240F08780416902
:103CC0003940C91BB1FA81F149098C4240F07E802C
:103CD00041693940C91BB1FA81F149098C4275D15A
:103CE00041693940C91BB1FA81F149098C42DDD0E3
:103CF0006CE000BF81693940C91BB1FA81F1490903
:103D00008C4263D181693940C91BB1FA81F14909FB
:103D10008C425BD181693940C91BB1FA81F14909F3
:103D20008C4253D181693940C91BB1FA81F14909EB
:103D30008C42DFD04AE000BF80693840C01BB0FA37
:103D400080F04009844241D146B923E0806938407F
:103D5000C01BB0FA80F04009844237D1FDF7DEFD88
:103D6000A0EB08012868B142F0D981693940C91B2C
:103D7000B1FA81F149098C42E8D116E080693840F6
:103D8000C01BB0FA80F0400984424FF0000018BF19
:103D9000BDE8F081FDF7C2FD286881693940C91B83
:103DA000B1FA81F149098C42E8D100202021286331
:103DB00085F83D1085F83E00296C41F0200129640A
:103DC00085F83C000120BDE8F08100BF0020BDE87F
:103DD000F0810000F0B581B0044600681D464369DB
:103DE0008FB203EA0701B94202D1002001B0F0BD51
:103DF0004169164601323CD0490512D47EB300BF5A
:103E0000FDF78CFD411B2068B14203D9416939405F
:103E1000B9422BD141693940B942E6D041694905DF
:103E2000EED5016841F4007101606FF48061416179
:103E3000042000212022216384F83D2084F83E10D4
:103E4000226C1043206484F83C10012001B0F0BDC6
:103E500041693940B942C8D041694905E1D4FDF70B
:103E60005DFD206841693940B942F1D02020E0E78A
:103E700041694905D5D441693940B942B5D0416954
:103E80004905CED441693940B942AED041694905AE
:103E9000C7D441693940B942A7D041694905C0D466
:103EA00041693940B942E3D19FE7000070B504464B
:103EB0000068154650F8143F5A063DD40E4629B9FD
:103EC00026E000BF50F8141F490635D40168C90622
:103ED00021D4FDF723FD411B2068B142F2D941698D
:103EE0004906EFD400202021206384F83D1084F897
:103EF0003E00206C40F0200018E000BFFDF70EFDF2
:103F0000206850F8141F4906ECD50168490613D4FF
:103F10000168C906F2D56FF0100101600020202170
:103F2000206384F83D1084F83E00206C206400205B
:103F300084F83C00012070BD002070BD70B503689E
:103F4000044653F8140F000611D40E46481C29D01D
:103F500086BB00BF1868400527D4FDF7DFFC236847
:103F600053F8140F000637D518680006F2D5002064
:103F700070BD00BF18680006F9D41868400514D455
:103F800018680006F3D4186840050ED418680006B7
:103F9000EDD41868400508D4186800064FF00000FA
:103FA00048BF70BD18684005E4D56FF480601860A4
:103FB000042012E0154603E053F8140F0006D6D48F
:103FC00018684005F1D4FDF7A9FC401B2368B042F6
:103FD000F2D958690006EFD4202000212022216365
:103FE00084F83D2084F83E10226C104320640120A8
:103FF00084F83C1070BD0000B0B582B04FF47A7008
:10400000FDF75CFB40F600048120C4F20104ADF82A
:104010000600204610210022FDF77AFC40F2102510
:10402000C2F200050DF10601284602224FF47A7310
:10403000FFF702FB204610210122FDF769FC48F240
:104040008100ADF80600204610210022FDF760FC3B
:104050000DF10601284602224FF47A73FFF7ECFABD
:10406000204610210122FDF753FC0A20FDF726FB14
:1040700046F68640ADF80600204610210022FDF7E6
:1040800047FC0DF10601284602224FF47A73FFF730
:10409000D3FA204610210122FDF73AFC48F28700AE
:1040A000ADF80600204610210022FDF731FC0DF18D
:1040B0000601284602224FF47A73FFF7BDFA204624
:1040C00010210122FDF724FC8820ADF806002046CF
:1040D00010210022FDF71CFC0DF1060128460222EA
:1040E0004FF47A73FFF7A8FA204610210122FDF75A
:1040F0000FFC47F69D00ADF8060020461021002277
:10410000FDF706FC0DF10601284602224FF47A73F2
:10411000FFF792FA204610210122FDF7F9FB4CF23D
:104120009E40ADF80600204610210022FDF7F0FB6E
:104130000DF10601284602224FF47A73FFF77CFA4C
:10414000204610210122FDF7E3FB40F6A640ADF822
:104150000600204610210022FDF7DAFB0DF10601D2
:10416000284602224FF47A73FFF766FA20461021A0
:104170000122FDF7CDFB8D20ADF806002046102171
:104180000022FDF7C5FB0DF10601284602224FF47F
:104190007A73FFF751FA204610210122FDF7B8FB90
:1041A0008E20ADF80600204610210022FDF7B0FB5E
:1041B0000DF10601284602224FF47A73FFF73CFA0C
:1041C000204610210122FDF7A3FB8F20ADF8060049
:1041D000204610210022FDF79BFB0DF10601284629
:1041E00002224FF47A73FFF727FA204610210122AA
:1041F000FDF78EFB48F68970ADF8060020461021C9
:104200000022FDF785FB0DF10601284602224FF43E
:104210007A73FFF711FA204610210122FDF778FB8F
:1042200042F68B30ADF80600204610210022FDF743
:104230006FFB0DF10601284602224FF47A73FFF757
:10424000FBF9204610210122FDF762FB41F2B92063
:10425000ADF80600204610210022FDF759FB0DF1B4
:104260000601284602224FF47A73FFF7E5F920464B
:1042700010210122FDF74CFBC020ADF806002046BE
:1042800010210022FDF744FB0DF106012846022211
:104290004FF47A73FFF7D0F9204610210122FDF781
:1042A00037FB4FF69270ADF8060020461021002231
:1042B000FDF72EFB0DF10601284602224FF47A731A
:1042C000FFF7BAF9204610210122FDF721FB48F241
:1042D0008150ADF80600204610210022FDF718FBA2
:1042E0000DF10601284602224FF47A73FFF7A4F974
:1042F000204610210122FDF70BFB02B0B0BD0000EB
:104300002DE9F04782B040F600048046C4F2010473
:1043100012208DF806002046102100224FF0100ACE
:104320000026FDF7F5FA40F210204FF47A75C2F23C
:1043300000000DF1060101AA02230095FFF77AFAA9
:10434000204610210122FDF7E3FA9DF8050040F216
:104350007009C2F20009410689F804007CD51320D7
:104360008DF80600204610210022FDF7D1FA40F218
:104370001027C2F200070DF1060101AA38460223F8
:104380000095FFF757FA204610210122FDF7C0FAE9
:104390009DF80500102189F80500204600228DF8BF
:1043A00006A0FDF7B5FA0DF1060101AA3846022371
:1043B0000095FFF73FFA204610210122FDF7A8FAE9
:1043C0009DF805008D218DF806108DF80700204618
:1043D00010210022FDF79CFA0DF106013846022259
:1043E0004FF47A73FFF728F9204610210122FDF7D8
:1043F0008FFA204610210022FDF78AFA01A93846DB
:1044000001224FF47A738DF80460FFF715F999F8DB
:104410000520384641464FF47A73FFF70DF82046E1
:1044200010210122FDF774FA44F29200ADF8060063
:10443000204610210022FDF76BFA0DF106013846E7
:1044400002224FF47A73FFF7F7F820461021012279
:10445000FDF75EFA99F80560304602B0BDE8F087D6
:104460002DE9F04784B040F600048046C4F2010410
:1044700048F281100F46ADF80E00204610210022B0
:10448000FDF746FA40F21025C2F200050DF10E09C3
:104490002846494602224FF47A734FF47A7AFFF79E
:1044A000CBF8204610210122FDF732FA40F69200A7
:1044B000ADF80E00204610210022FDF729FA0DF17B
:1044C0000E01284602224FF47A73FFF7B5F8204612
:1044D00010210122FDF71CFA8E20ADF80E002046B7
:1044E00010210022FDF714FA0DF10E0128460222D8
:1044F0004FF47A73FFF7A0F8204610210122FDF750
:1045000007FA8D20ADF80E00204610210022FDF79D
:10451000FFF90DF10E01284602224FF47A73FFF7DE
:104520008BF8204610210122FDF7F2F920461021D8
:104530000022FDF7EDF980208DF80B000DF10B0145
:10454000284601224FF47A73FFF776F82846414651
:104550003A464FF47A73FFF76FF820461021012294
:10456000FDF7D6F9A2208DF80E002046102100227A
:104570008DF80F70FDF7CCF90DF10E0128460222DF
:104580004FF47A73FFF758F8204610210122FDF707
:10459000BFF948F28130ADF80E002046102100220C
:1045A000FDF7B6F90DF10E01284602224FF47A7399
:1045B000FFF742F8204610210122FDF7A9F9122643
:1045C0002046102100228DF80E60FDF7A1F903AFFF
:1045D0000DF10E0128463A460223CDF800A0FFF760
:1045E00029F9204610210122FDF792F99DF80D00CE
:1045F00040F27001C2F20001C87000BF20461021D5
:1046000000228DF80E60FDF783F9284649463A46A8
:104610000223CDF800A0FFF70DF92046102101225A
:10462000FDF776F99DF80D000007E7D540F69200FA
:10463000ADF80E00204610210022FDF769F940F286
:104640001025C2F200050DF10E01284602224FF49A
:104650007A73FEF7F1FF204610210122FDF758F989
:1046600048F28150ADF80E00204610210022FDF7DF
:104670004FF90DF10E01284602224FF47A73FEF72E
:10468000DBFF204610210122FDF742F904B0BDE80E
:10469000F0870000FEE70000FEE7000020BF00BF3B
:1046A000704700007047000047F20001C4F20001AB
:1046B000086840F0040240F29800C2F200000A606C
:1046C000FEF7F2B92DE9F043427B90F80EE090F846
:1046D0000FC0002900F0E380012917D1C90700F0BD
:1046E000DE800C2A00F2DB800121914041F2AA53C6
:1046F000194200F0C780BEF11F0FC0F0C9800C2A1C
:1047000040F0CA800CF1010C0122C6E045F62949AF
:1047100045F628474DF20B7821F00103012441F2C0
:10472000AA55CCF28F29C0F28F27C0F2A30803E06C
:104730000EF1010E023BD1D00C2A1AD804FA02F66F
:104740002E4209D0BEF11E0F0CD90C2A0ED10CF14D
:10475000010C01220BE000BF16F4256F24D0BEF13E
:104760001D0F03D80EF1010E03E000BF01324FF020
:10477000010E0C2ADED804FA02F62E420AD0BEF14F
:104780001F0FD5D30C2A0BD10CF1010C01224FF0D5
:10479000010ECFE716F4256F10D0BEF11E0FC7D360
:1047A00001324FF0010EC5E7022AE2D1BEF11B0F24
:1047B0000ED80EF1010E0222DBE700BF022AB9D1AA
:1047C000BEF11C0F10D20EF1010E0222B2E700BFA3
:1047D000BEF11D0F10D0BEF11C0F17D15FEA8C7215
:1047E00018D0002231E000BF0AD0BEF11D0F0FD15A
:1047F0004FF0010E03229DE74FF0010E0322B8E7B0
:104800005FEA8C7210D0002231E000BF0222B0E7D4
:1048100002228FE71FFA8CF202FB09F24FEAB2067E
:10482000BE420BD9012210E01FFA8CF202FB09F202
:104830004FEAB206BE4213D9012218E04FEA321203
:1048400042454FF0000238BF0122002A4FF0020219
:104850004FF01D0E08BF032208BF4FF0010E88E77E
:104860004FEA321242454FF0000238BF0122002ABF
:104870004FF002024FF01D0E08BF032208BF4FF099
:10488000010E57E711F4256F4AD0BEF11E0F03D277
:104890000EF1010E03E000BF01324FF0010ED1B264
:1048A000022980F80FC0427380F80EE00CD817225E
:1048B00051434CF21D72C1F67142A1FB02210CF270
:1048C000CF7240F2D47309E048F63E63C0F20203AF
:1048D00059430CF5FA62090C40F2D2735FFA8EF775
:1048E00048F21F546744C5F2EB143B44A2FB044555
:1048F00003EB9202A2EB551202EBD512114444F6DF
:104900002512C2F29242A1FB0223CA1A03EB520201
:104910009308DB00A3EB9202891A0173BDE8F083D0
:10492000022ABCD1BEF11C0F04D20EF1010E0222EC
:10493000B5E700BF06D0BEF11D0F09D14FF0010E43
:104940000322ACE75FEA8C7104D001211CE000BFB8
:104950000222A4E745F629421FFA8CF1CCF28F22FD
:104960004A4345F628434FEAB201C0F28F239942E9
:104970004FF0000108D84DF20A734FEA3212C0F22C
:10498000A3039A4288BF012102224FF01D0E002985
:1049900018BF032218BF4FF0010E80E770B50D4617
:1049A0000446FCF7BBFF064620684168890607D429
:1049B000FCF7B4FF801BB0F57A7FF5D91AE000BF91
:1049C000416841F010014160290C0162A9B24162C5
:1049D000416821F010014160FCF7A0FF054600BFCF
:1049E00020684068800607D4FCF798FF401BB0F5AC
:1049F0007A7FF5D9012070BD002070BD2DE9F0430C
:104A000081B0089C984615460E468146FCF786FF05
:104A1000201A00EB0804FCF781FF40F20801C2F203
:104A200000010968C1F3CB3161430091D9F800104E
:104A30008A683240921BB2FA82F2520995423DD006
:104A4000074618F1010031D0FCF768FFC01BA042F7
:104A500038D2009800990028A1F101010091D9F8FD
:104A60000010896808BF044601EA0600801BB0FAFE
:104A700080F040098542E7D120E000BF88683040DF
:104A8000801BB0FA80F04009854217D0886830401A
:104A9000801BB0FA80F0400985420FD08868304012
:104AA000801BB0FA80F04009854207D0886830400A
:104AB000801BB0FA80F040098542DFD1002001B0B0
:104AC000BDE8F083D9E900014268B1F5827F22F0A8
:104AD000E00242600BD1D9F80810B1F5004F02D0C6
:104AE000B1F5806F03D1016821F040010160D9F870
:104AF0002810B1F5005F07D1016821F40051016071
:104B0000016841F400510160012089F85100002042
:104B100089F85000032001B0BDE8F0832DE9F04F83
:104B200089B0CDE90310A2F1200046F63C41C0B2A5
:104B3000C0F6000101EB001200010C5A5788908862
:104B4000D3880FFA80FC15893843568918430FFA29
:104B500085FA284395890FFA86FE0643D18928B243
:104B600035430D430FFA87F90FFA83FB0AB2290484
:104B70004FEAD43600F1C6806904C4F3803800F1EE
:104B8000E480A904C4F3403300F103810293E904F3
:104B9000C4F300331CD50221042701EAD92107EA16
:104BA0009C273944082707EA5B273944102707EA7E
:104BB0001A273944202707EADE173944402707EA35
:104BC000901739444FF4F06707EA521739440B4302
:104BD000019353462905C4F3C02A1DD50221042799
:104BE00001EA992107EA5C273944082707EA1B27CD
:104BF0003944102707EAD3173944202707EA9E17BC
:104C00003944402707EA501739444FF4786707EAD8
:104C1000121739444AEA010A4F466905C4F380294C
:104C20001DD50221042401EA572104EA1C27394436
:104C3000082707EADB173944102707EA9317394496
:104C4000202707EA5E131944402303EA10100844A2
:104C50004FF4FC5101EAD201084449EA00090398E3
:104C600040F2BC155038C2F2000500248DF818003F
:104C70004FF47A7B0DF117022846782102238DF834
:104C80001740CDF800B0FDF701F9049F0DF11902AE
:104C9000380910308DF81A002846782102238DF843
:104CA0001940CDF800B0FDF7F1F807F00F008DF8CE
:104CB0001C000DF11B022846782102238DF81B40B1
:104CC000CDF800B0FDF7E2F840208DF81D00029805
:104CD0000DF11D028DF82000019878218DF821003A
:104CE000284607238DF81E608DF81F808DF822A0BE
:104CF0008DF82390CDF800B0FDF7C8F809B0BDE8F5
:104D0000F08F00BFB9F1000F48BF0236BCF1000FB1
:104D100048BF0436BBF1000F48BF0836BAF1000F98
:104D200048BF46F01006BEF1000F48BF46F020060F
:104D3000002848BF46F04006002A48BF66F07F06BC
:104D40006904C4F380387FF51CAFA10B7F0448BF12
:104D500041F00208042101EA1C310827414407EA16
:104D6000DB273944102707EA9A273944202707EA26
:104D70005E273944402707EA102739434FF4C077AC
:104D800007EAD21741EA0708A904C4F340337FF5C4
:104D9000FDAE0221042701EA193107EADC27394474
:104DA000082707EA9B273944102707EA5A2739447E
:104DB000202707EA1E273944402707EAD01739443D
:104DC0004FF4607707EA921739440B430293E904E2
:104DD000C4F300333FF5DFAEFAE60000F0B583B070
:104DE0006420FCF76BFC40F2BC144FF42E40C2F27E
:104DF0000004ADF80A004FF47A750DF10A0220465E
:104E0000782102230095FDF741F84FF400560DF18B
:104E10000A02204678210223ADF80A600095FDF7CA
:104E200035F800270DF10A02204678210223ADF85B
:104E30000A700095FDF72AF84FF43040ADF80A00EB
:104E40000DF10A022046782102230095FDF71EF895
:104E50004FF44840ADF80A000DF10A0220467821CF
:104E600002230095FDF712F80DF10A022046782181
:104E70000223ADF80A700095FDF708F84FF4805052
:104E8000ADF80A000DF10A022046782102230095B0
:104E9000FCF7FCFF4FF48040ADF80A000DF10A0268
:104EA0002046782102230095FCF7F0FF4FF40140E3
:104EB000ADF80A000DF10A02204678210223009580
:104EC000FCF7E4FF4FF4FE40ADF80A000DF10A02D2
:104ED0002046782102230095FCF7D8FF4FF42140AB
:104EE000ADF80A000DF10A02204678210223009550
:104EF000FCF7CCFF4FF42640ADF80A000DF10A0292
:104F00002046782102230095FCF7C0FF4FF428408B
:104F1000ADF80A000DF10A0220467821022300951F
:104F2000FCF7B4FF4FF47C50ADF80A000DF10A0213
:104F30002046782102230095FCF7A8FF4FF4244077
:104F4000ADF80A000DF10A022046782102230095EF
:104F5000FCF79CFF4FF45340ADF80A000DF10A0234
:104F60002046782102230095FCF790FF0DF10A02FC
:104F7000204678210223ADF80A700095FCF786FFE1
:104F80004FF45540ADF80A000DF10A022046782191
:104F900002230095FCF77AFF4FF47040ADF80A0049
:104FA0000DF10A022046782102230095FCF76EFFDE
:104FB0004FF45940ADF80A000DF10A02204678215D
:104FC00002230095FCF762FF4FF40850ADF80A0089
:104FD0000DF10A022046782102230095FCF756FFC6
:104FE0004FF45A40ADF80A000DF10A02204678212C
:104FF00002230095FCF74AFF4FF49050ADF80A00E9
:105000000DF10A022046782102230095FCF73EFFAD
:105010004FF45B40ADF80A000DF10A0220467821FA
:1050200002230095FCF732FF0DF10A022046782199
:105030000223ADF80A600095FCF728FF4FF40D40FD
:10504000ADF80A000DF10A022046782102230095EE
:10505000FCF71CFF4FF4A050ADF80A000DF10A0256
:105060002046782102230095FCF710FF4FF42F40D3
:10507000ADF80A000DF10A022046782102230095BE
:10508000FCF704FF6420FCF719FB03B0F0BD00003F
:105090002DE9F04FA3B040F2BC164FF43040C2F2FD
:1050A00000060DF10B070DF10B0AADF80B004FF4E4
:1050B0007A74304678213A4602230AF101050094B9
:1050C000FCF7E4FE00200DF10B08ADF80B003046B4
:1050D0007821424602230094FCF7D8FE4FF480501A
:1050E0000DF10B09ADF80B00304678214A4602233A
:1050F0000094FCF7CBFE40208DF80B002846802161
:10510000EB46FBF7AAF930467821524681230094FA
:10511000FCF7BCFEDD464FF43140ADF80B003046E5
:1051200078213A460223BA460094FCF7AFFE0020ED
:10513000ADF80B0030467821424602230094FCF77C
:10514000A5FE4FF48050ADF80B00304678214A465A
:1051500002230094FCF79AFE40208DF80B002846AD
:1051600080216F46FBF779F90DF10B0B3046782162
:105170005A4681230094FCF789FEBD464FF4324025
:10518000ADF80B0030467821524602230094FCF71C
:105190007DFE0020ADF80B00304678214246022308
:1051A0000094FCF773FE4FF48050ADF80B003046CE
:1051B00078214A4602230094FCF768FE40208DF8CF
:1051C0000B00284680216F46FBF747F930467821CF
:1051D0005A4681230094FCF759FEBD464FF43340F4
:1051E000ADF80B0030467821524602230094FCF7BC
:1051F0004DFE0020ADF80B003046782142460223D8
:105200000094FCF743FE4FF48050ADF80B0030469D
:1052100078214A4602230094FCF738FE40208DF89E
:105220000B00284680216F46FBF717F9304678219E
:105230005A4681230094FCF729FEBD464FF43440C2
:10524000ADF80B0030467821524602230094FCF75B
:105250001DFE0020ADF80B003046782142460223A7
:105260000094FCF713FE4FF48050ADF80B0030466D
:1052700078214A4602230094FCF708FE40208DF86E
:105280000B00284680216F46FBF7E7F8304678216F
:105290005A4681230094FCF7F9FDBD464FF4354092
:1052A000ADF80B0030467821524602230094FCF7FB
:1052B000EDFD0020ADF80B00304678214246022378
:1052C0000094FCF7E3FD4FF48050ADF80B0030463E
:1052D00078214A4602230094FCF7D8FD40208DF83F
:1052E0000B00284680216F46FBF7B7F8304678213F
:1052F0005A4681230094FCF7C9FDBD464FF4364061
:10530000ADF80B0030467821524602230094FCF79A
:10531000BDFD0020ADF80B00304678214246022347
:105320000094FCF7B3FD4FF48050ADF80B0030460D
:1053300078214A4602230094FCF7A8FD40208DF80E
:105340000B00284680216F464FF04008FBF785F898
:10535000304678215A4681230094FCF797FDBD46DC
:105360004FF43740ADF80B00304678215246022307
:105370000094FCF78BFD0020ADF80B00304678213F
:105380000DF10B0202230094FCF780FD4FF48050D6
:10539000ADF80B00304678214A4602230094FCF712
:1053A00075FD284680218DF80B80FBF756F83046B6
:1053B00078215A4681230094FCF768FD23B0BDE8AC
:1053C000F08F000070470000FCF784BE70470000BB
:1053D000FEE700009AB0FCF78BFE0A201090012037
:1053E00010211490CDE915104FF46010002402250F
:1053F000199010A81394CDE911440A94CDE91754DB
:10540000FDF750F920B1EFF3108072B6FEE700BF50
:105410000F20CDE90B054FF48060CDE90E040BA8F9
:1054200002210D94FDF738F820B1EFF3108072B629
:10543000FEE700BF032007904FF400404FF40077D1
:10544000099007A80897FCF7A5FF28B1EFF3108093
:1054500072B600BFFEE700BF002641F21804CDE996
:105460001266CDE91066C4F20204206840F6000816
:1054700040F0100020602068C4F2010800F0100025
:105480000B900B982068102140F0040020602068E9
:10549000012200F004000B900B9820684FF0100AD6
:1054A00040F00800206020684FF0010900F008007B
:1054B0000B900B984046FCF72BFA40464FF40071D6
:1054C0000022FCF725FA082010900020C1F21100FC
:1054D00010ADCDE9110640462946FCF711F9CDE99A
:1054E00010A94FF0020A404629461296CDF84CA06A
:1054F000FCF706F940462946CDE91079CDE9129A24
:10550000FCF7FEF8092001210022FCF75DFE0920CE
:10551000FCF748FE54F8040C002140F0010044F868
:10552000040C54F8040C002200F0010010901098B4
:105530000B20FCF749FE0B20FCF734FE40F2BC10B8
:10554000A8F53441C2F2000048F2A0624FF4804353
:10555000C0F2010280E84600C0E90363C0E90566C5
:10556000C0E90766FCF7E0F920B1EFF3108072B6EE
:10557000FEE700BF40F2D00008F5E051C2F20000A3
:105580004FF480724FF4602380F80C900675C3616D
:10559000C0E900168260C0F810A0FBF799FD28B1A1
:1055A000EFF3108072B600BFFEE700BF0120CDE927
:1055B00010000720129040F2D000C2F2000010A9A3
:1055C000FBF7E0FC20B1EFF3108072B6FEE700BFFE
:1055D0000220CDE9100040F2D000C2F2000010A974
:1055E000FBF7D0FC20B1EFF3108072B6FEE700BFEE
:1055F00040F2102008F52051C2F200004FF48272F0
:1056000000254FF40073182780E826000A21C0E91E
:105610000355C0E90553C761C0E90855C0E90A51FF
:10562000FDF778FE20B1EFF3108072B6FEE700BF01
:1056300040F2011040F27009C0F20100C2F200090C
:105640000B90A8F56041484640F8281F4FF0FF3105
:105650004FF48072CDE91055C0E90112FDF760FBEF
:1056600020B1EFF3108072B6FEE700BF002009F111
:105670002805ADF81C008DF81E0007A92846012258
:10568000FDF794FD20B1EFF3108072B6FEE700BF86
:105690000BA9284601220695FDF78CFC20B1EFF3FB
:1056A000108072B6FEE700BF069810A90122FDF730
:1056B000D9FB18B1EFF3108072B6FEE740464FF405
:1056C000007100220025FCF723F9FFF787FBFFF7A5
:1056D000DFFCFEF791FC47F23E2A03264322C0F688
:1056E000000A002707E000BF00270AEB050001358C
:1056F0004278202D0CD0F8B2F1B2D2B2FFF70EFAF8
:105700000637F8B27B28F0D30136F0B20728EBD980
:1057100099F8000040F23C1A0028C2F2000A00F09A
:10572000EB82FFF7B5FC00270326432201250FF289
:10573000506B05E000271BF8052001351A2D0CD011
:10574000F8B2F1B2D2B2FFF7E9F90637F8B27B2826
:10575000F1D30136F0B20728ECD999F801000028FE
:1057600060D140F2D000C2F2000000F1300B03E043
:1057700099F80100002855D15846FEF7C1FD0028D0
:1057800089F80600F4D0064640F2D000C2F20000CC
:105790003044002580F83050FAF742FD0068C6F129
:1057A000000C721E40F2D001C2F200014B1993F8B6
:1057B0003010415C2029DBD1AA4217D093F8317018
:1057C000C75D202FD4D10CEB0507B91C0ED093F880
:1057D0003210415C2029CBD1F91C07D093F833104B
:1057E000415C2029C4D10435AE42DBD15846FAF7DA
:1057F000F6FD89F8070046F6414042F26D01C7F216
:105800006120C6F27351CAE900017420AAF80800A9
:105810005046FAF703FEC1B25046FEF721FE0120C2
:1058200089F80100FFF734FC40F2D004C2F2000412
:1058300009F1200120460222FBF74AFD0DF1400A42
:105840000AF1040005903EE0D9E90405D9E902B760
:1058500000F0F6FE064628468A4600F0F1FECDE945
:10586000006A40F23C16C2F200060D460290304635
:105870000FF288513A465B460DF1400A0395002528
:10588000FAF7D6FC3046FAF7C9FDC1B23046FEF74A
:10589000E7FD44F2920089F80250ADF8400040461E
:1058A00010210022FCF734F840F21020C2F2000070
:1058B000514602224FF47A73FDF7BEFE4046102196
:1058C0000122FCF725F8B9F92000642380F30C00CD
:1058D00040F20112B9F924105843C0F21002A0FBA3
:1058E0000202B1F5E17FD8BF4FF4E17140F6E44028
:1058F0008142A8BF014601FB03F04AF6C871401A75
:105900004FF28D01CBF2F571A0FB0101C2F16400F1
:10591000C9F80C00A3EBD12040F2BC16C9F808006E
:1059200040F22C60C2F20006ADF8400030468821FB
:10593000524602234FF47A750095FCF7A7FA14201B
:10594000FBF7BCFE30468821524606230095FCF743
:105950009DF848BBBDF84000BDF8431000BA000CEC
:1059600009BA0E0C00F0BCFF4FF60075C4F27F754B
:10597000294600F0F3FE0021C4F22F3100F0C4FFED
:105980000021CCF2342100F087FEC9F81000304627
:1059900000F0A6FF294600F0E1FE0021C4F2C82174
:1059A00000F0B2FFC9F81400D9F80C2009F13C0B43
:1059B00058460FF2E831FAF73BFC99F83C20BAB1AF
:1059C00009F13D050026002703E000BF15F8012B73
:1059D00072B1F8B2F1B2D2B2FFF7A0F80637F8B25E
:1059E0007B28F3D30136F0B2072801D80027EDE772
:1059F0000A20FBF763FED9F8082058460FF2B431AD
:105A0000FAF716FC99F83C20B2B109F13D050027E0
:105A1000012602E015F8012B72B1F8B2F1B2D2B250
:105A2000FFF77CF80637F8B27B28F3D30136F0B2E3
:105A3000072801D80027EDE70A20FBF73FFED9F839
:105A4000100000F0FDFD02460B465846DEA1FAF7B5
:105A5000EFFB99F83C20BAB109F13D050027022679
:105A600003E000BF15F8012B72B1F8B2F1B2D2B267
:105A7000FFF754F80637F8B27B28F3D30136F0B2BB
:105A8000072801D80027EDE70A20FBF717FED9F811
:105A9000140000F0D5FD02460B465846CFA1FAF798
:105AA000C7FB99F83C20BAB109F13D050027032650
:105AB00003E000BF15F8012B72B1F8B2F1B2D2B217
:105AC000FFF72CF80637F8B27B28F3D30136F0B293
:105AD000072801D80027EDE799F8020000283FF4D5
